{
  "_format": "hh-sol-artifact-1",
  "contractName": "Twitter1",
  "sourceName": "contracts/twitter-q1.sol",
  "abi": [
    {
      "inputs": [],
      "name": "nextTweetId",
      "outputs": [
        {
          "internalType": "uint256",
          "name": "",
          "type": "uint256"
        }
      ],
      "stateMutability": "view",
      "type": "function"
    },
    {
      "inputs": [
        {
          "internalType": "string",
          "name": "_content",
          "type": "string"
        }
      ],
      "name": "postTweet",
      "outputs": [],
      "stateMutability": "nonpayable",
      "type": "function"
    },
    {
      "inputs": [
        {
          "internalType": "address",
          "name": "_user",
          "type": "address"
        }
      ],
      "name": "readTweets",
      "outputs": [
        {
          "components": [
            {
              "internalType": "uint256",
              "name": "tweetId",
              "type": "uint256"
            },
            {
              "internalType": "address",
              "name": "author",
              "type": "address"
            },
            {
              "internalType": "string",
              "name": "content",
              "type": "string"
            },
            {
              "internalType": "uint256",
              "name": "createdAt",
              "type": "uint256"
            }
          ],
          "internalType": "struct Twitter1.Tweet[]",
          "name": "",
          "type": "tuple[]"
        }
      ],
      "stateMutability": "view",
      "type": "function"
    },
    {
      "inputs": [
        {
          "internalType": "string",
          "name": "_name",
          "type": "string"
        }
      ],
      "name": "registerAccount",
      "outputs": [],
      "stateMutability": "nonpayable",
      "type": "function"
    },
    {
      "inputs": [
        {
          "internalType": "uint256",
          "name": "",
          "type": "uint256"
        }
      ],
      "name": "tweets",
      "outputs": [
        {
          "internalType": "uint256",
          "name": "tweetId",
          "type": "uint256"
        },
        {
          "internalType": "address",
          "name": "author",
          "type": "address"
        },
        {
          "internalType": "string",
          "name": "content",
          "type": "string"
        },
        {
          "internalType": "uint256",
          "name": "createdAt",
          "type": "uint256"
        }
      ],
      "stateMutability": "view",
      "type": "function"
    },
    {
      "inputs": [
        {
          "internalType": "address",
          "name": "",
          "type": "address"
        }
      ],
      "name": "users",
      "outputs": [
        {
          "internalType": "address",
          "name": "wallet",
          "type": "address"
        },
        {
          "internalType": "string",
          "name": "name",
          "type": "string"
        }
      ],
      "stateMutability": "view",
      "type": "function"
    }
  ],
  "bytecode": "0x608060405234801561001057600080fd5b5061135d806100206000396000f3fe608060405234801561001057600080fd5b50600436106100625760003560e01c80630cbc3dc41461006757806371c85b8d146100835780638076e02b146100b3578063a87430ba146100d1578063bff6de2014610102578063e8d857b01461011e575b600080fd5b610081600480360381019061007c9190610c8a565b610151565b005b61009d60048036038101906100989190610d35565b6104f2565b6040516100aa9190610f48565b60405180910390f35b6100bb610760565b6040516100c89190610f79565b60405180910390f35b6100eb60048036038101906100e69190610d35565b610766565b6040516100f9929190610fed565b60405180910390f35b61011c60048036038101906101179190610c8a565b610832565b005b61013860048036038101906101339190611049565b610917565b6040516101489493929190611076565b60405180910390f35b3360008060003373ffffffffffffffffffffffffffffffffffffffff1673ffffffffffffffffffffffffffffffffffffffff1681526020019081526020016000206040518060600160405290816000820160009054906101000a900473ffffffffffffffffffffffffffffffffffffffff1673ffffffffffffffffffffffffffffffffffffffff1673ffffffffffffffffffffffffffffffffffffffff168152602001600182018054610203906110f1565b80601f016020809104026020016040519081016040528092919081815260200182805461022f906110f1565b801561027c5780601f106102515761010080835404028352916020019161027c565b820191906000526020600020905b81548152906001019060200180831161025f57829003601f168201915b50505050508152602001600282018054806020026020016040519081016040528092919081815260200182805480156102d457602002820191906000526020600020905b8154815260200190600101908083116102c0575b50505050508152505090503373ffffffffffffffffffffffffffffffffffffffff16816000015173ffffffffffffffffffffffffffffffffffffffff1614610351576040517f08c379a000000000000000000000000000000000000000000000000000000000815260040161034890611195565b60405180910390fd5b6000604051806080016040528060025481526020013373ffffffffffffffffffffffffffffffffffffffff16815260200186868080601f016020809104026020016040519081016040528093929190818152602001838380828437600081840152601f19601f820116905080830192505050505050508152602001428152509050806001600060025481526020019081526020016000206000820151816000015560208201518160010160006101000a81548173ffffffffffffffffffffffffffffffffffffffff021916908373ffffffffffffffffffffffffffffffffffffffff1602179055506040820151816002019080519060200190610455929190610ab4565b506060820151816003015590505060008060003373ffffffffffffffffffffffffffffffffffffffff1673ffffffffffffffffffffffffffffffffffffffff1681526020019081526020016000209050806002016002549080600181540180825580915050600190039060005260206000200160009091909190915055600260008154809291906104e5906111e4565b9190505550505050505050565b606060008060008473ffffffffffffffffffffffffffffffffffffffff1673ffffffffffffffffffffffffffffffffffffffff168152602001908152602001600020905060008160020190506105816040518060400160405280600a81526020017f74776565746964733a200000000000000000000000000000000000000000000081525082805490506109ef565b6000818054905067ffffffffffffffff8111156105a1576105a061122d565b5b6040519080825280602002602001820160405280156105da57816020015b6105c7610b3a565b8152602001906001900390816105bf5790505b50905060005b828054905081101561075457600160008483815481106106035761060261125c565b5b90600052602060002001548152602001908152602001600020604051806080016040529081600082015481526020016001820160009054906101000a900473ffffffffffffffffffffffffffffffffffffffff1673ffffffffffffffffffffffffffffffffffffffff1673ffffffffffffffffffffffffffffffffffffffff168152602001600282018054610697906110f1565b80601f01602080910402602001604051908101604052809291908181526020018280546106c3906110f1565b80156107105780601f106106e557610100808354040283529160200191610710565b820191906000526020600020905b8154815290600101906020018083116106f357829003601f168201915b505050505081526020016003820154815250508282815181106107365761073561125c565b5b6020026020010181905250808061074c906111e4565b9150506105e0565b50809350505050919050565b60025481565b60006020528060005260406000206000915090508060000160009054906101000a900473ffffffffffffffffffffffffffffffffffffffff16908060010180546107af906110f1565b80601f01602080910402602001604051908101604052809291908181526020018280546107db906110f1565b80156108285780601f106107fd57610100808354040283529160200191610828565b820191906000526020600020905b81548152906001019060200180831161080b57829003601f168201915b5050505050905082565b6000828290501415610879576040517f08c379a0000000000000000000000000000000000000000000000000000000008152600401610870906112d7565b60405180910390fd5b60008060003373ffffffffffffffffffffffffffffffffffffffff1673ffffffffffffffffffffffffffffffffffffffff168152602001908152602001600020905082828260010191906108ce929190610b78565b50338160000160006101000a81548173ffffffffffffffffffffffffffffffffffffffff021916908373ffffffffffffffffffffffffffffffffffffffff160217905550505050565b60016020528060005260406000206000915090508060000154908060010160009054906101000a900473ffffffffffffffffffffffffffffffffffffffff1690806002018054610966906110f1565b80601f0160208091040260200160405190810160405280929190818152602001828054610992906110f1565b80156109df5780601f106109b4576101008083540402835291602001916109df565b820191906000526020600020905b8154815290600101906020018083116109c257829003601f168201915b5050505050908060030154905084565b610a878282604051602401610a059291906112f7565b6040516020818303038152906040527fb60e72cc000000000000000000000000000000000000000000000000000000007bffffffffffffffffffffffffffffffffffffffffffffffffffffffff19166020820180517bffffffffffffffffffffffffffffffffffffffffffffffffffffffff8381831617835250505050610a8b565b5050565b60008151905060006a636f6e736f6c652e6c6f679050602083016000808483855afa5050505050565b828054610ac0906110f1565b90600052602060002090601f016020900481019282610ae25760008555610b29565b82601f10610afb57805160ff1916838001178555610b29565b82800160010185558215610b29579182015b82811115610b28578251825591602001919060010190610b0d565b5b509050610b369190610bfe565b5090565b604051806080016040528060008152602001600073ffffffffffffffffffffffffffffffffffffffff16815260200160608152602001600081525090565b828054610b84906110f1565b90600052602060002090601f016020900481019282610ba65760008555610bed565b82601f10610bbf57803560ff1916838001178555610bed565b82800160010185558215610bed579182015b82811115610bec578235825591602001919060010190610bd1565b5b509050610bfa9190610bfe565b5090565b5b80821115610c17576000816000905550600101610bff565b5090565b600080fd5b600080fd5b600080fd5b600080fd5b600080fd5b60008083601f840112610c4a57610c49610c25565b5b8235905067ffffffffffffffff811115610c6757610c66610c2a565b5b602083019150836001820283011115610c8357610c82610c2f565b5b9250929050565b60008060208385031215610ca157610ca0610c1b565b5b600083013567ffffffffffffffff811115610cbf57610cbe610c20565b5b610ccb85828601610c34565b92509250509250929050565b600073ffffffffffffffffffffffffffffffffffffffff82169050919050565b6000610d0282610cd7565b9050919050565b610d1281610cf7565b8114610d1d57600080fd5b50565b600081359050610d2f81610d09565b92915050565b600060208284031215610d4b57610d4a610c1b565b5b6000610d5984828501610d20565b91505092915050565b600081519050919050565b600082825260208201905092915050565b6000819050602082019050919050565b6000819050919050565b610da181610d8e565b82525050565b610db081610cf7565b82525050565b600081519050919050565b600082825260208201905092915050565b60005b83811015610df0578082015181840152602081019050610dd5565b83811115610dff576000848401525b50505050565b6000601f19601f8301169050919050565b6000610e2182610db6565b610e2b8185610dc1565b9350610e3b818560208601610dd2565b610e4481610e05565b840191505092915050565b6000608083016000830151610e676000860182610d98565b506020830151610e7a6020860182610da7565b5060408301518482036040860152610e928282610e16565b9150506060830151610ea76060860182610d98565b508091505092915050565b6000610ebe8383610e4f565b905092915050565b6000602082019050919050565b6000610ede82610d62565b610ee88185610d6d565b935083602082028501610efa85610d7e565b8060005b85811015610f365784840389528151610f178582610eb2565b9450610f2283610ec6565b925060208a01995050600181019050610efe565b50829750879550505050505092915050565b60006020820190508181036000830152610f628184610ed3565b905092915050565b610f7381610d8e565b82525050565b6000602082019050610f8e6000830184610f6a565b92915050565b610f9d81610cf7565b82525050565b600082825260208201905092915050565b6000610fbf82610db6565b610fc98185610fa3565b9350610fd9818560208601610dd2565b610fe281610e05565b840191505092915050565b60006040820190506110026000830185610f94565b81810360208301526110148184610fb4565b90509392505050565b61102681610d8e565b811461103157600080fd5b50565b6000813590506110438161101d565b92915050565b60006020828403121561105f5761105e610c1b565b5b600061106d84828501611034565b91505092915050565b600060808201905061108b6000830187610f6a565b6110986020830186610f94565b81810360408301526110aa8185610fb4565b90506110b96060830184610f6a565b95945050505050565b7f4e487b7100000000000000000000000000000000000000000000000000000000600052602260045260246000fd5b6000600282049050600182168061110957607f821691505b6020821081141561111d5761111c6110c2565b5b50919050565b7f546869732077616c6c657420646f6573206e6f742062656c6f6e6720746f206160008201527f6e79206163636f756e742e000000000000000000000000000000000000000000602082015250565b600061117f602b83610fa3565b915061118a82611123565b604082019050919050565b600060208201905081810360008301526111ae81611172565b9050919050565b7f4e487b7100000000000000000000000000000000000000000000000000000000600052601160045260246000fd5b60006111ef82610d8e565b91507fffffffffffffffffffffffffffffffffffffffffffffffffffffffffffffffff821415611222576112216111b5565b5b600182019050919050565b7f4e487b7100000000000000000000000000000000000000000000000000000000600052604160045260246000fd5b7f4e487b7100000000000000000000000000000000000000000000000000000000600052603260045260246000fd5b7f4e616d652063616e6e6f7420626520616e20656d70747920737472696e670000600082015250565b60006112c1601e83610fa3565b91506112cc8261128b565b602082019050919050565b600060208201905081810360008301526112f0816112b4565b9050919050565b600060408201905081810360008301526113118185610fb4565b90506113206020830184610f6a565b939250505056fea26469706673582212208fb8d45337bd714f7ceb7d311b6fab7cb994b98127514a735adb76c57652e33e64736f6c63430008090033",
  "linkReferences": {},
  "deployedLinkReferences": {}
}