{
  "_format": "hh-sol-artifact-1",
  "contractName": "Twitter",
  "sourceName": "contracts/twitter-q2.sol",
  "abi": [
    {
      "inputs": [
        {
          "internalType": "address",
          "name": "_user",
          "type": "address"
        }
      ],
      "name": "followUser",
      "outputs": [],
      "stateMutability": "nonpayable",
      "type": "function"
    },
    {
      "inputs": [
        {
          "internalType": "address",
          "name": "_user",
          "type": "address"
        }
      ],
      "name": "getConversationWithUser",
      "outputs": [
        {
          "components": [
            {
              "internalType": "uint256",
              "name": "messageId",
              "type": "uint256"
            },
            {
              "internalType": "string",
              "name": "content",
              "type": "string"
            },
            {
              "internalType": "address",
              "name": "from",
              "type": "address"
            },
            {
              "internalType": "address",
              "name": "to",
              "type": "address"
            }
          ],
          "internalType": "struct Twitter.Message[]",
          "name": "",
          "type": "tuple[]"
        }
      ],
      "stateMutability": "view",
      "type": "function"
    },
    {
      "inputs": [],
      "name": "getFollowers",
      "outputs": [
        {
          "internalType": "address[]",
          "name": "",
          "type": "address[]"
        }
      ],
      "stateMutability": "view",
      "type": "function"
    },
    {
      "inputs": [],
      "name": "getFollowing",
      "outputs": [
        {
          "internalType": "address[]",
          "name": "",
          "type": "address[]"
        }
      ],
      "stateMutability": "view",
      "type": "function"
    },
    {
      "inputs": [],
      "name": "getTweetFeed",
      "outputs": [
        {
          "components": [
            {
              "internalType": "uint256",
              "name": "tweetId",
              "type": "uint256"
            },
            {
              "internalType": "address",
              "name": "author",
              "type": "address"
            },
            {
              "internalType": "string",
              "name": "content",
              "type": "string"
            },
            {
              "internalType": "uint256",
              "name": "createdAt",
              "type": "uint256"
            }
          ],
          "internalType": "struct Twitter.Tweet[]",
          "name": "",
          "type": "tuple[]"
        }
      ],
      "stateMutability": "view",
      "type": "function"
    },
    {
      "inputs": [],
      "name": "nextMessageId",
      "outputs": [
        {
          "internalType": "uint256",
          "name": "",
          "type": "uint256"
        }
      ],
      "stateMutability": "view",
      "type": "function"
    },
    {
      "inputs": [],
      "name": "nextTweetId",
      "outputs": [
        {
          "internalType": "uint256",
          "name": "",
          "type": "uint256"
        }
      ],
      "stateMutability": "view",
      "type": "function"
    },
    {
      "inputs": [
        {
          "internalType": "string",
          "name": "_content",
          "type": "string"
        }
      ],
      "name": "postTweet",
      "outputs": [],
      "stateMutability": "nonpayable",
      "type": "function"
    },
    {
      "inputs": [
        {
          "internalType": "address",
          "name": "_user",
          "type": "address"
        }
      ],
      "name": "readTweets",
      "outputs": [
        {
          "components": [
            {
              "internalType": "uint256",
              "name": "tweetId",
              "type": "uint256"
            },
            {
              "internalType": "address",
              "name": "author",
              "type": "address"
            },
            {
              "internalType": "string",
              "name": "content",
              "type": "string"
            },
            {
              "internalType": "uint256",
              "name": "createdAt",
              "type": "uint256"
            }
          ],
          "internalType": "struct Twitter.Tweet[]",
          "name": "",
          "type": "tuple[]"
        }
      ],
      "stateMutability": "view",
      "type": "function"
    },
    {
      "inputs": [
        {
          "internalType": "string",
          "name": "_name",
          "type": "string"
        }
      ],
      "name": "registerAccount",
      "outputs": [],
      "stateMutability": "nonpayable",
      "type": "function"
    },
    {
      "inputs": [
        {
          "internalType": "address",
          "name": "_recipient",
          "type": "address"
        },
        {
          "internalType": "string",
          "name": "_content",
          "type": "string"
        }
      ],
      "name": "sendMessage",
      "outputs": [],
      "stateMutability": "nonpayable",
      "type": "function"
    },
    {
      "inputs": [
        {
          "internalType": "uint256",
          "name": "",
          "type": "uint256"
        }
      ],
      "name": "tweets",
      "outputs": [
        {
          "internalType": "uint256",
          "name": "tweetId",
          "type": "uint256"
        },
        {
          "internalType": "address",
          "name": "author",
          "type": "address"
        },
        {
          "internalType": "string",
          "name": "content",
          "type": "string"
        },
        {
          "internalType": "uint256",
          "name": "createdAt",
          "type": "uint256"
        }
      ],
      "stateMutability": "view",
      "type": "function"
    },
    {
      "inputs": [
        {
          "internalType": "address",
          "name": "",
          "type": "address"
        }
      ],
      "name": "users",
      "outputs": [
        {
          "internalType": "address",
          "name": "wallet",
          "type": "address"
        },
        {
          "internalType": "string",
          "name": "name",
          "type": "string"
        }
      ],
      "stateMutability": "view",
      "type": "function"
    }
  ],
  "bytecode": "0x608060405234801561001057600080fd5b5061203e806100206000396000f3fe608060405234801561001057600080fd5b50600436106100cf5760003560e01c80638076e02b1161008c578063bff6de2011610066578063bff6de2014610215578063de6f24bb14610231578063e8d857b01461024d578063eefbf17e14610280576100cf565b80638076e02b146101aa578063a70806f7146101c8578063a87430ba146101e4576100cf565b80630cbc3dc4146100d45780630d79f561146100f057806323f147021461010e578063495b8c291461012c57806371c85b8d1461014a57806375d92f531461017a575b600080fd5b6100ee60048036038101906100e991906116f3565b61029e565b005b6100f8610514565b6040516101059190611830565b60405180910390f35b6101166105e1565b6040516101239190611830565b60405180910390f35b6101346106ae565b6040516101419190611a29565b60405180910390f35b610164600480360381019061015f9190611a77565b61086a565b6040516101719190611a29565b60405180910390f35b610194600480360381019061018f9190611a77565b610ad8565b6040516101a19190611bc9565b60405180910390f35b6101b2610cfd565b6040516101bf9190611bfa565b60405180910390f35b6101e260048036038101906101dd9190611a77565b610d03565b005b6101fe60048036038101906101f99190611a77565b610e56565b60405161020c929190611c6e565b60405180910390f35b61022f600480360381019061022a91906116f3565b610f22565b005b61024b60048036038101906102469190611c9e565b611007565b005b61026760048036038101906102629190611d2a565b61137a565b6040516102779493929190611d57565b60405180910390f35b610288611452565b6040516102959190611bfa565b60405180910390f35b3360008060003373ffffffffffffffffffffffffffffffffffffffff1673ffffffffffffffffffffffffffffffffffffffff16815260200190815260200160002090503373ffffffffffffffffffffffffffffffffffffffff168160000160009054906101000a900473ffffffffffffffffffffffffffffffffffffffff1673ffffffffffffffffffffffffffffffffffffffff1614610373576040517f08c379a000000000000000000000000000000000000000000000000000000000815260040161036a90611e15565b60405180910390fd5b6000604051806080016040528060025481526020013373ffffffffffffffffffffffffffffffffffffffff16815260200186868080601f016020809104026020016040519081016040528093929190818152602001838380828437600081840152601f19601f820116905080830192505050505050508152602001428152509050806001600060025481526020019081526020016000206000820151816000015560208201518160010160006101000a81548173ffffffffffffffffffffffffffffffffffffffff021916908373ffffffffffffffffffffffffffffffffffffffff160217905550604082015181600201908051906020019061047792919061151d565b506060820151816003015590505060008060003373ffffffffffffffffffffffffffffffffffffffff1673ffffffffffffffffffffffffffffffffffffffff16815260200190815260200160002090508060020160025490806001815401808255809150506001900390600052602060002001600090919091909150556002600081548092919061050790611e64565b9190505550505050505050565b60606000803373ffffffffffffffffffffffffffffffffffffffff1673ffffffffffffffffffffffffffffffffffffffff1681526020019081526020016000206004018054806020026020016040519081016040528092919081815260200182805480156105d757602002820191906000526020600020905b8160009054906101000a900473ffffffffffffffffffffffffffffffffffffffff1673ffffffffffffffffffffffffffffffffffffffff168152602001906001019080831161058d575b5050505050905090565b60606000803373ffffffffffffffffffffffffffffffffffffffff1673ffffffffffffffffffffffffffffffffffffffff1681526020019081526020016000206003018054806020026020016040519081016040528092919081815260200182805480156106a457602002820191906000526020600020905b8160009054906101000a900473ffffffffffffffffffffffffffffffffffffffff1673ffffffffffffffffffffffffffffffffffffffff168152602001906001019080831161065a575b5050505050905090565b6060600060025467ffffffffffffffff8111156106ce576106cd611ead565b5b60405190808252806020026020018201604052801561070757816020015b6106f46115a3565b8152602001906001900390816106ec5790505b50905060005b6002548110156108625760016000828152602001908152602001600020604051806080016040529081600082015481526020016001820160009054906101000a900473ffffffffffffffffffffffffffffffffffffffff1673ffffffffffffffffffffffffffffffffffffffff1673ffffffffffffffffffffffffffffffffffffffff1681526020016002820180546107a590611f0b565b80601f01602080910402602001604051908101604052809291908181526020018280546107d190611f0b565b801561081e5780601f106107f35761010080835404028352916020019161081e565b820191906000526020600020905b81548152906001019060200180831161080157829003601f168201915b5050505050815260200160038201548152505082828151811061084457610843611f3d565b5b6020026020010181905250808061085a90611e64565b91505061070d565b508091505090565b606060008060008473ffffffffffffffffffffffffffffffffffffffff1673ffffffffffffffffffffffffffffffffffffffff168152602001908152602001600020905060008160020190506108f96040518060400160405280600a81526020017f74776565746964733a20000000000000000000000000000000000000000000008152508280549050611458565b6000818054905067ffffffffffffffff81111561091957610918611ead565b5b60405190808252806020026020018201604052801561095257816020015b61093f6115a3565b8152602001906001900390816109375790505b50905060005b8280549050811015610acc576001600084838154811061097b5761097a611f3d565b5b90600052602060002001548152602001908152602001600020604051806080016040529081600082015481526020016001820160009054906101000a900473ffffffffffffffffffffffffffffffffffffffff1673ffffffffffffffffffffffffffffffffffffffff1673ffffffffffffffffffffffffffffffffffffffff168152602001600282018054610a0f90611f0b565b80601f0160208091040260200160405190810160405280929190818152602001828054610a3b90611f0b565b8015610a885780601f10610a5d57610100808354040283529160200191610a88565b820191906000526020600020905b815481529060010190602001808311610a6b57829003601f168201915b50505050508152602001600382015481525050828281518110610aae57610aad611f3d565b5b60200260200101819052508080610ac490611e64565b915050610958565b50809350505050919050565b60606000803373ffffffffffffffffffffffffffffffffffffffff1673ffffffffffffffffffffffffffffffffffffffff16815260200190815260200160002060050160008373ffffffffffffffffffffffffffffffffffffffff1673ffffffffffffffffffffffffffffffffffffffff168152602001908152602001600020805480602002602001604051908101604052809291908181526020016000905b82821015610cf2578382906000526020600020906004020160405180608001604052908160008201548152602001600182018054610bb590611f0b565b80601f0160208091040260200160405190810160405280929190818152602001828054610be190611f0b565b8015610c2e5780601f10610c0357610100808354040283529160200191610c2e565b820191906000526020600020905b815481529060010190602001808311610c1157829003601f168201915b505050505081526020016002820160009054906101000a900473ffffffffffffffffffffffffffffffffffffffff1673ffffffffffffffffffffffffffffffffffffffff1673ffffffffffffffffffffffffffffffffffffffff1681526020016003820160009054906101000a900473ffffffffffffffffffffffffffffffffffffffff1673ffffffffffffffffffffffffffffffffffffffff1673ffffffffffffffffffffffffffffffffffffffff168152505081526020019060010190610b78565b505050509050919050565b60025481565b60008060008373ffffffffffffffffffffffffffffffffffffffff1673ffffffffffffffffffffffffffffffffffffffff168152602001908152602001600020905080600401339080600181540180825580915050600190039060005260206000200160009091909190916101000a81548173ffffffffffffffffffffffffffffffffffffffff021916908373ffffffffffffffffffffffffffffffffffffffff16021790555060008060003373ffffffffffffffffffffffffffffffffffffffff1673ffffffffffffffffffffffffffffffffffffffff168152602001908152602001600020905080600301839080600181540180825580915050600190039060005260206000200160009091909190916101000a81548173ffffffffffffffffffffffffffffffffffffffff021916908373ffffffffffffffffffffffffffffffffffffffff160217905550505050565b60006020528060005260406000206000915090508060000160009054906101000a900473ffffffffffffffffffffffffffffffffffffffff1690806001018054610e9f90611f0b565b80601f0160208091040260200160405190810160405280929190818152602001828054610ecb90611f0b565b8015610f185780601f10610eed57610100808354040283529160200191610f18565b820191906000526020600020905b815481529060010190602001808311610efb57829003601f168201915b5050505050905082565b6000828290501415610f69576040517f08c379a0000000000000000000000000000000000000000000000000000000008152600401610f6090611fb8565b60405180910390fd5b60008060003373ffffffffffffffffffffffffffffffffffffffff1673ffffffffffffffffffffffffffffffffffffffff16815260200190815260200160002090508282826001019190610fbe9291906115e1565b50338160000160006101000a81548173ffffffffffffffffffffffffffffffffffffffff021916908373ffffffffffffffffffffffffffffffffffffffff160217905550505050565b60006040518060800160405280600354815260200184848080601f016020809104026020016040519081016040528093929190818152602001838380828437600081840152601f19601f8201169050808301925050505050505081526020013373ffffffffffffffffffffffffffffffffffffffff1681526020018573ffffffffffffffffffffffffffffffffffffffff1681525090506000803373ffffffffffffffffffffffffffffffffffffffff1673ffffffffffffffffffffffffffffffffffffffff16815260200190815260200160002060050160008573ffffffffffffffffffffffffffffffffffffffff1673ffffffffffffffffffffffffffffffffffffffff16815260200190815260200160002081908060018154018082558091505060019003906000526020600020906004020160009091909190915060008201518160000155602082015181600101908051906020019061116c92919061151d565b5060408201518160020160006101000a81548173ffffffffffffffffffffffffffffffffffffffff021916908373ffffffffffffffffffffffffffffffffffffffff16021790555060608201518160030160006101000a81548173ffffffffffffffffffffffffffffffffffffffff021916908373ffffffffffffffffffffffffffffffffffffffff16021790555050506000808573ffffffffffffffffffffffffffffffffffffffff1673ffffffffffffffffffffffffffffffffffffffff16815260200190815260200160002060050160003373ffffffffffffffffffffffffffffffffffffffff1673ffffffffffffffffffffffffffffffffffffffff1681526020019081526020016000208190806001815401808255809150506001900390600052602060002090600402016000909190919091506000820151816000015560208201518160010190805190602001906112cb92919061151d565b5060408201518160020160006101000a81548173ffffffffffffffffffffffffffffffffffffffff021916908373ffffffffffffffffffffffffffffffffffffffff16021790555060608201518160030160006101000a81548173ffffffffffffffffffffffffffffffffffffffff021916908373ffffffffffffffffffffffffffffffffffffffff16021790555050506003600081548092919061136f90611e64565b919050555050505050565b60016020528060005260406000206000915090508060000154908060010160009054906101000a900473ffffffffffffffffffffffffffffffffffffffff16908060020180546113c990611f0b565b80601f01602080910402602001604051908101604052809291908181526020018280546113f590611f0b565b80156114425780601f1061141757610100808354040283529160200191611442565b820191906000526020600020905b81548152906001019060200180831161142557829003601f168201915b5050505050908060030154905084565b60035481565b6114f0828260405160240161146e929190611fd8565b6040516020818303038152906040527fb60e72cc000000000000000000000000000000000000000000000000000000007bffffffffffffffffffffffffffffffffffffffffffffffffffffffff19166020820180517bffffffffffffffffffffffffffffffffffffffffffffffffffffffff83818316178352505050506114f4565b5050565b60008151905060006a636f6e736f6c652e6c6f679050602083016000808483855afa5050505050565b82805461152990611f0b565b90600052602060002090601f01602090048101928261154b5760008555611592565b82601f1061156457805160ff1916838001178555611592565b82800160010185558215611592579182015b82811115611591578251825591602001919060010190611576565b5b50905061159f9190611667565b5090565b604051806080016040528060008152602001600073ffffffffffffffffffffffffffffffffffffffff16815260200160608152602001600081525090565b8280546115ed90611f0b565b90600052602060002090601f01602090048101928261160f5760008555611656565b82601f1061162857803560ff1916838001178555611656565b82800160010185558215611656579182015b8281111561165557823582559160200191906001019061163a565b5b5090506116639190611667565b5090565b5b80821115611680576000816000905550600101611668565b5090565b600080fd5b600080fd5b600080fd5b600080fd5b600080fd5b60008083601f8401126116b3576116b261168e565b5b8235905067ffffffffffffffff8111156116d0576116cf611693565b5b6020830191508360018202830111156116ec576116eb611698565b5b9250929050565b6000806020838503121561170a57611709611684565b5b600083013567ffffffffffffffff81111561172857611727611689565b5b6117348582860161169d565b92509250509250929050565b600081519050919050565b600082825260208201905092915050565b6000819050602082019050919050565b600073ffffffffffffffffffffffffffffffffffffffff82169050919050565b60006117978261176c565b9050919050565b6117a78161178c565b82525050565b60006117b9838361179e565b60208301905092915050565b6000602082019050919050565b60006117dd82611740565b6117e7818561174b565b93506117f28361175c565b8060005b8381101561182357815161180a88826117ad565b9750611815836117c5565b9250506001810190506117f6565b5085935050505092915050565b6000602082019050818103600083015261184a81846117d2565b905092915050565b600081519050919050565b600082825260208201905092915050565b6000819050602082019050919050565b6000819050919050565b6118918161187e565b82525050565b600081519050919050565b600082825260208201905092915050565b60005b838110156118d15780820151818401526020810190506118b6565b838111156118e0576000848401525b50505050565b6000601f19601f8301169050919050565b600061190282611897565b61190c81856118a2565b935061191c8185602086016118b3565b611925816118e6565b840191505092915050565b60006080830160008301516119486000860182611888565b50602083015161195b602086018261179e565b506040830151848203604086015261197382826118f7565b91505060608301516119886060860182611888565b508091505092915050565b600061199f8383611930565b905092915050565b6000602082019050919050565b60006119bf82611852565b6119c9818561185d565b9350836020820285016119db8561186e565b8060005b85811015611a1757848403895281516119f88582611993565b9450611a03836119a7565b925060208a019950506001810190506119df565b50829750879550505050505092915050565b60006020820190508181036000830152611a4381846119b4565b905092915050565b611a548161178c565b8114611a5f57600080fd5b50565b600081359050611a7181611a4b565b92915050565b600060208284031215611a8d57611a8c611684565b5b6000611a9b84828501611a62565b91505092915050565b600081519050919050565b600082825260208201905092915050565b6000819050602082019050919050565b6000608083016000830151611ae86000860182611888565b5060208301518482036020860152611b0082826118f7565b9150506040830151611b15604086018261179e565b506060830151611b28606086018261179e565b508091505092915050565b6000611b3f8383611ad0565b905092915050565b6000602082019050919050565b6000611b5f82611aa4565b611b698185611aaf565b935083602082028501611b7b85611ac0565b8060005b85811015611bb75784840389528151611b988582611b33565b9450611ba383611b47565b925060208a01995050600181019050611b7f565b50829750879550505050505092915050565b60006020820190508181036000830152611be38184611b54565b905092915050565b611bf48161187e565b82525050565b6000602082019050611c0f6000830184611beb565b92915050565b611c1e8161178c565b82525050565b600082825260208201905092915050565b6000611c4082611897565b611c4a8185611c24565b9350611c5a8185602086016118b3565b611c63816118e6565b840191505092915050565b6000604082019050611c836000830185611c15565b8181036020830152611c958184611c35565b90509392505050565b600080600060408486031215611cb757611cb6611684565b5b6000611cc586828701611a62565b935050602084013567ffffffffffffffff811115611ce657611ce5611689565b5b611cf28682870161169d565b92509250509250925092565b611d078161187e565b8114611d1257600080fd5b50565b600081359050611d2481611cfe565b92915050565b600060208284031215611d4057611d3f611684565b5b6000611d4e84828501611d15565b91505092915050565b6000608082019050611d6c6000830187611beb565b611d796020830186611c15565b8181036040830152611d8b8185611c35565b9050611d9a6060830184611beb565b95945050505050565b7f546869732077616c6c657420646f6573206e6f742062656c6f6e6720746f206160008201527f6e79206163636f756e742e000000000000000000000000000000000000000000602082015250565b6000611dff602b83611c24565b9150611e0a82611da3565b604082019050919050565b60006020820190508181036000830152611e2e81611df2565b9050919050565b7f4e487b7100000000000000000000000000000000000000000000000000000000600052601160045260246000fd5b6000611e6f8261187e565b91507fffffffffffffffffffffffffffffffffffffffffffffffffffffffffffffffff821415611ea257611ea1611e35565b5b600182019050919050565b7f4e487b7100000000000000000000000000000000000000000000000000000000600052604160045260246000fd5b7f4e487b7100000000000000000000000000000000000000000000000000000000600052602260045260246000fd5b60006002820490506001821680611f2357607f821691505b60208210811415611f3757611f36611edc565b5b50919050565b7f4e487b7100000000000000000000000000000000000000000000000000000000600052603260045260246000fd5b7f4e616d652063616e6e6f7420626520616e20656d70747920737472696e670000600082015250565b6000611fa2601e83611c24565b9150611fad82611f6c565b602082019050919050565b60006020820190508181036000830152611fd181611f95565b9050919050565b60006040820190508181036000830152611ff28185611c35565b90506120016020830184611beb565b939250505056fea26469706673582212204f607676c4ab166cefd419db7a5ac597baf33b13d30a25d3fd7b632469a519bc64736f6c63430008090033",
  "linkReferences": {},
  "deployedLinkReferences": {}
}