{
  "_format": "hh-sol-artifact-1",
  "contractName": "Twitter_ADVANCED",
  "sourceName": "contracts/twitteradvanced.sol",
  "abi": [
    {
      "inputs": [
        {
          "internalType": "address",
          "name": "_user",
          "type": "address"
        }
      ],
      "name": "followUser",
      "outputs": [],
      "stateMutability": "nonpayable",
      "type": "function"
    },
    {
      "inputs": [
        {
          "internalType": "address",
          "name": "_user",
          "type": "address"
        }
      ],
      "name": "getConversationWithUser",
      "outputs": [
        {
          "components": [
            {
              "internalType": "uint256",
              "name": "messageId",
              "type": "uint256"
            },
            {
              "internalType": "string",
              "name": "content",
              "type": "string"
            },
            {
              "internalType": "address",
              "name": "from",
              "type": "address"
            },
            {
              "internalType": "address",
              "name": "to",
              "type": "address"
            }
          ],
          "internalType": "struct Twitter_ADVANCED.Message[]",
          "name": "",
          "type": "tuple[]"
        }
      ],
      "stateMutability": "view",
      "type": "function"
    },
    {
      "inputs": [],
      "name": "getFollowers",
      "outputs": [
        {
          "internalType": "address[]",
          "name": "",
          "type": "address[]"
        }
      ],
      "stateMutability": "view",
      "type": "function"
    },
    {
      "inputs": [],
      "name": "getFollowing",
      "outputs": [
        {
          "internalType": "address[]",
          "name": "",
          "type": "address[]"
        }
      ],
      "stateMutability": "view",
      "type": "function"
    },
    {
      "inputs": [],
      "name": "getTweetFeed",
      "outputs": [
        {
          "components": [
            {
              "internalType": "uint256",
              "name": "tweetId",
              "type": "uint256"
            },
            {
              "internalType": "address",
              "name": "author",
              "type": "address"
            },
            {
              "internalType": "string",
              "name": "content",
              "type": "string"
            },
            {
              "internalType": "uint256",
              "name": "createdAt",
              "type": "uint256"
            }
          ],
          "internalType": "struct Twitter_ADVANCED.Tweet[]",
          "name": "",
          "type": "tuple[]"
        }
      ],
      "stateMutability": "view",
      "type": "function"
    },
    {
      "inputs": [],
      "name": "nextMessageId",
      "outputs": [
        {
          "internalType": "uint256",
          "name": "",
          "type": "uint256"
        }
      ],
      "stateMutability": "view",
      "type": "function"
    },
    {
      "inputs": [],
      "name": "nextTweetId",
      "outputs": [
        {
          "internalType": "uint256",
          "name": "",
          "type": "uint256"
        }
      ],
      "stateMutability": "view",
      "type": "function"
    },
    {
      "inputs": [
        {
          "internalType": "string",
          "name": "_content",
          "type": "string"
        }
      ],
      "name": "postTweet",
      "outputs": [],
      "stateMutability": "nonpayable",
      "type": "function"
    },
    {
      "inputs": [
        {
          "internalType": "address",
          "name": "_user",
          "type": "address"
        }
      ],
      "name": "readTweets",
      "outputs": [
        {
          "components": [
            {
              "internalType": "uint256",
              "name": "tweetId",
              "type": "uint256"
            },
            {
              "internalType": "address",
              "name": "author",
              "type": "address"
            },
            {
              "internalType": "string",
              "name": "content",
              "type": "string"
            },
            {
              "internalType": "uint256",
              "name": "createdAt",
              "type": "uint256"
            }
          ],
          "internalType": "struct Twitter_ADVANCED.Tweet[]",
          "name": "",
          "type": "tuple[]"
        }
      ],
      "stateMutability": "view",
      "type": "function"
    },
    {
      "inputs": [
        {
          "internalType": "string",
          "name": "_name",
          "type": "string"
        }
      ],
      "name": "registerAccount",
      "outputs": [],
      "stateMutability": "nonpayable",
      "type": "function"
    },
    {
      "inputs": [
        {
          "internalType": "address",
          "name": "_recipient",
          "type": "address"
        },
        {
          "internalType": "string",
          "name": "_content",
          "type": "string"
        }
      ],
      "name": "sendMessage",
      "outputs": [],
      "stateMutability": "nonpayable",
      "type": "function"
    },
    {
      "inputs": [
        {
          "internalType": "uint256",
          "name": "",
          "type": "uint256"
        }
      ],
      "name": "tweets",
      "outputs": [
        {
          "internalType": "uint256",
          "name": "tweetId",
          "type": "uint256"
        },
        {
          "internalType": "address",
          "name": "author",
          "type": "address"
        },
        {
          "internalType": "string",
          "name": "content",
          "type": "string"
        },
        {
          "internalType": "uint256",
          "name": "createdAt",
          "type": "uint256"
        }
      ],
      "stateMutability": "view",
      "type": "function"
    },
    {
      "inputs": [],
      "name": "unfollowuser",
      "outputs": [],
      "stateMutability": "nonpayable",
      "type": "function"
    },
    {
      "inputs": [
        {
          "internalType": "address",
          "name": "",
          "type": "address"
        }
      ],
      "name": "users",
      "outputs": [
        {
          "internalType": "address",
          "name": "wallet",
          "type": "address"
        },
        {
          "internalType": "string",
          "name": "name",
          "type": "string"
        }
      ],
      "stateMutability": "view",
      "type": "function"
    }
  ],
  "bytecode": "0x608060405234801561001057600080fd5b50612065806100206000396000f3fe608060405234801561001057600080fd5b50600436106100ea5760003560e01c80638076e02b1161008c578063bff6de2011610066578063bff6de201461023a578063de6f24bb14610256578063e8d857b014610272578063eefbf17e146102a5576100ea565b80638076e02b146101cf578063a70806f7146101ed578063a87430ba14610209576100ea565b80633db15c69116100c85780633db15c6914610147578063495b8c291461015157806371c85b8d1461016f57806375d92f531461019f576100ea565b80630cbc3dc4146100ef5780630d79f5611461010b57806323f1470214610129575b600080fd5b6101096004803603810190610104919061171a565b6102c3565b005b610113610539565b6040516101209190611857565b60405180910390f35b610131610606565b60405161013e9190611857565b60405180910390f35b61014f6106d3565b005b6101596106d5565b6040516101669190611a50565b60405180910390f35b61018960048036038101906101849190611a9e565b610891565b6040516101969190611a50565b60405180910390f35b6101b960048036038101906101b49190611a9e565b610aff565b6040516101c69190611bf0565b60405180910390f35b6101d7610d24565b6040516101e49190611c21565b60405180910390f35b61020760048036038101906102029190611a9e565b610d2a565b005b610223600480360381019061021e9190611a9e565b610e7d565b604051610231929190611c95565b60405180910390f35b610254600480360381019061024f919061171a565b610f49565b005b610270600480360381019061026b9190611cc5565b61102e565b005b61028c60048036038101906102879190611d51565b6113a1565b60405161029c9493929190611d7e565b60405180910390f35b6102ad611479565b6040516102ba9190611c21565b60405180910390f35b3360008060003373ffffffffffffffffffffffffffffffffffffffff1673ffffffffffffffffffffffffffffffffffffffff16815260200190815260200160002090503373ffffffffffffffffffffffffffffffffffffffff168160000160009054906101000a900473ffffffffffffffffffffffffffffffffffffffff1673ffffffffffffffffffffffffffffffffffffffff1614610398576040517f08c379a000000000000000000000000000000000000000000000000000000000815260040161038f90611e3c565b60405180910390fd5b6000604051806080016040528060025481526020013373ffffffffffffffffffffffffffffffffffffffff16815260200186868080601f016020809104026020016040519081016040528093929190818152602001838380828437600081840152601f19601f820116905080830192505050505050508152602001428152509050806001600060025481526020019081526020016000206000820151816000015560208201518160010160006101000a81548173ffffffffffffffffffffffffffffffffffffffff021916908373ffffffffffffffffffffffffffffffffffffffff160217905550604082015181600201908051906020019061049c929190611544565b506060820151816003015590505060008060003373ffffffffffffffffffffffffffffffffffffffff1673ffffffffffffffffffffffffffffffffffffffff16815260200190815260200160002090508060020160025490806001815401808255809150506001900390600052602060002001600090919091909150556002600081548092919061052c90611e8b565b9190505550505050505050565b60606000803373ffffffffffffffffffffffffffffffffffffffff1673ffffffffffffffffffffffffffffffffffffffff1681526020019081526020016000206004018054806020026020016040519081016040528092919081815260200182805480156105fc57602002820191906000526020600020905b8160009054906101000a900473ffffffffffffffffffffffffffffffffffffffff1673ffffffffffffffffffffffffffffffffffffffff16815260200190600101908083116105b2575b5050505050905090565b60606000803373ffffffffffffffffffffffffffffffffffffffff1673ffffffffffffffffffffffffffffffffffffffff1681526020019081526020016000206003018054806020026020016040519081016040528092919081815260200182805480156106c957602002820191906000526020600020905b8160009054906101000a900473ffffffffffffffffffffffffffffffffffffffff1673ffffffffffffffffffffffffffffffffffffffff168152602001906001019080831161067f575b5050505050905090565b565b6060600060025467ffffffffffffffff8111156106f5576106f4611ed4565b5b60405190808252806020026020018201604052801561072e57816020015b61071b6115ca565b8152602001906001900390816107135790505b50905060005b6002548110156108895760016000828152602001908152602001600020604051806080016040529081600082015481526020016001820160009054906101000a900473ffffffffffffffffffffffffffffffffffffffff1673ffffffffffffffffffffffffffffffffffffffff1673ffffffffffffffffffffffffffffffffffffffff1681526020016002820180546107cc90611f32565b80601f01602080910402602001604051908101604052809291908181526020018280546107f890611f32565b80156108455780601f1061081a57610100808354040283529160200191610845565b820191906000526020600020905b81548152906001019060200180831161082857829003601f168201915b5050505050815260200160038201548152505082828151811061086b5761086a611f64565b5b6020026020010181905250808061088190611e8b565b915050610734565b508091505090565b606060008060008473ffffffffffffffffffffffffffffffffffffffff1673ffffffffffffffffffffffffffffffffffffffff168152602001908152602001600020905060008160020190506109206040518060400160405280600a81526020017f74776565746964733a2000000000000000000000000000000000000000000000815250828054905061147f565b6000818054905067ffffffffffffffff8111156109405761093f611ed4565b5b60405190808252806020026020018201604052801561097957816020015b6109666115ca565b81526020019060019003908161095e5790505b50905060005b8280549050811015610af357600160008483815481106109a2576109a1611f64565b5b90600052602060002001548152602001908152602001600020604051806080016040529081600082015481526020016001820160009054906101000a900473ffffffffffffffffffffffffffffffffffffffff1673ffffffffffffffffffffffffffffffffffffffff1673ffffffffffffffffffffffffffffffffffffffff168152602001600282018054610a3690611f32565b80601f0160208091040260200160405190810160405280929190818152602001828054610a6290611f32565b8015610aaf5780601f10610a8457610100808354040283529160200191610aaf565b820191906000526020600020905b815481529060010190602001808311610a9257829003601f168201915b50505050508152602001600382015481525050828281518110610ad557610ad4611f64565b5b60200260200101819052508080610aeb90611e8b565b91505061097f565b50809350505050919050565b60606000803373ffffffffffffffffffffffffffffffffffffffff1673ffffffffffffffffffffffffffffffffffffffff16815260200190815260200160002060050160008373ffffffffffffffffffffffffffffffffffffffff1673ffffffffffffffffffffffffffffffffffffffff168152602001908152602001600020805480602002602001604051908101604052809291908181526020016000905b82821015610d19578382906000526020600020906004020160405180608001604052908160008201548152602001600182018054610bdc90611f32565b80601f0160208091040260200160405190810160405280929190818152602001828054610c0890611f32565b8015610c555780601f10610c2a57610100808354040283529160200191610c55565b820191906000526020600020905b815481529060010190602001808311610c3857829003601f168201915b505050505081526020016002820160009054906101000a900473ffffffffffffffffffffffffffffffffffffffff1673ffffffffffffffffffffffffffffffffffffffff1673ffffffffffffffffffffffffffffffffffffffff1681526020016003820160009054906101000a900473ffffffffffffffffffffffffffffffffffffffff1673ffffffffffffffffffffffffffffffffffffffff1673ffffffffffffffffffffffffffffffffffffffff168152505081526020019060010190610b9f565b505050509050919050565b60025481565b60008060008373ffffffffffffffffffffffffffffffffffffffff1673ffffffffffffffffffffffffffffffffffffffff168152602001908152602001600020905080600401339080600181540180825580915050600190039060005260206000200160009091909190916101000a81548173ffffffffffffffffffffffffffffffffffffffff021916908373ffffffffffffffffffffffffffffffffffffffff16021790555060008060003373ffffffffffffffffffffffffffffffffffffffff1673ffffffffffffffffffffffffffffffffffffffff168152602001908152602001600020905080600301839080600181540180825580915050600190039060005260206000200160009091909190916101000a81548173ffffffffffffffffffffffffffffffffffffffff021916908373ffffffffffffffffffffffffffffffffffffffff160217905550505050565b60006020528060005260406000206000915090508060000160009054906101000a900473ffffffffffffffffffffffffffffffffffffffff1690806001018054610ec690611f32565b80601f0160208091040260200160405190810160405280929190818152602001828054610ef290611f32565b8015610f3f5780601f10610f1457610100808354040283529160200191610f3f565b820191906000526020600020905b815481529060010190602001808311610f2257829003601f168201915b5050505050905082565b6000828290501415610f90576040517f08c379a0000000000000000000000000000000000000000000000000000000008152600401610f8790611fdf565b60405180910390fd5b60008060003373ffffffffffffffffffffffffffffffffffffffff1673ffffffffffffffffffffffffffffffffffffffff16815260200190815260200160002090508282826001019190610fe5929190611608565b50338160000160006101000a81548173ffffffffffffffffffffffffffffffffffffffff021916908373ffffffffffffffffffffffffffffffffffffffff160217905550505050565b60006040518060800160405280600354815260200184848080601f016020809104026020016040519081016040528093929190818152602001838380828437600081840152601f19601f8201169050808301925050505050505081526020013373ffffffffffffffffffffffffffffffffffffffff1681526020018573ffffffffffffffffffffffffffffffffffffffff1681525090506000803373ffffffffffffffffffffffffffffffffffffffff1673ffffffffffffffffffffffffffffffffffffffff16815260200190815260200160002060050160008573ffffffffffffffffffffffffffffffffffffffff1673ffffffffffffffffffffffffffffffffffffffff168152602001908152602001600020819080600181540180825580915050600190039060005260206000209060040201600090919091909150600082015181600001556020820151816001019080519060200190611193929190611544565b5060408201518160020160006101000a81548173ffffffffffffffffffffffffffffffffffffffff021916908373ffffffffffffffffffffffffffffffffffffffff16021790555060608201518160030160006101000a81548173ffffffffffffffffffffffffffffffffffffffff021916908373ffffffffffffffffffffffffffffffffffffffff16021790555050506000808573ffffffffffffffffffffffffffffffffffffffff1673ffffffffffffffffffffffffffffffffffffffff16815260200190815260200160002060050160003373ffffffffffffffffffffffffffffffffffffffff1673ffffffffffffffffffffffffffffffffffffffff1681526020019081526020016000208190806001815401808255809150506001900390600052602060002090600402016000909190919091506000820151816000015560208201518160010190805190602001906112f2929190611544565b5060408201518160020160006101000a81548173ffffffffffffffffffffffffffffffffffffffff021916908373ffffffffffffffffffffffffffffffffffffffff16021790555060608201518160030160006101000a81548173ffffffffffffffffffffffffffffffffffffffff021916908373ffffffffffffffffffffffffffffffffffffffff16021790555050506003600081548092919061139690611e8b565b919050555050505050565b60016020528060005260406000206000915090508060000154908060010160009054906101000a900473ffffffffffffffffffffffffffffffffffffffff16908060020180546113f090611f32565b80601f016020809104026020016040519081016040528092919081815260200182805461141c90611f32565b80156114695780601f1061143e57610100808354040283529160200191611469565b820191906000526020600020905b81548152906001019060200180831161144c57829003601f168201915b5050505050908060030154905084565b60035481565b6115178282604051602401611495929190611fff565b6040516020818303038152906040527fb60e72cc000000000000000000000000000000000000000000000000000000007bffffffffffffffffffffffffffffffffffffffffffffffffffffffff19166020820180517bffffffffffffffffffffffffffffffffffffffffffffffffffffffff838183161783525050505061151b565b5050565b60008151905060006a636f6e736f6c652e6c6f679050602083016000808483855afa5050505050565b82805461155090611f32565b90600052602060002090601f01602090048101928261157257600085556115b9565b82601f1061158b57805160ff19168380011785556115b9565b828001600101855582156115b9579182015b828111156115b857825182559160200191906001019061159d565b5b5090506115c6919061168e565b5090565b604051806080016040528060008152602001600073ffffffffffffffffffffffffffffffffffffffff16815260200160608152602001600081525090565b82805461161490611f32565b90600052602060002090601f016020900481019282611636576000855561167d565b82601f1061164f57803560ff191683800117855561167d565b8280016001018555821561167d579182015b8281111561167c578235825591602001919060010190611661565b5b50905061168a919061168e565b5090565b5b808211156116a757600081600090555060010161168f565b5090565b600080fd5b600080fd5b600080fd5b600080fd5b600080fd5b60008083601f8401126116da576116d96116b5565b5b8235905067ffffffffffffffff8111156116f7576116f66116ba565b5b602083019150836001820283011115611713576117126116bf565b5b9250929050565b60008060208385031215611731576117306116ab565b5b600083013567ffffffffffffffff81111561174f5761174e6116b0565b5b61175b858286016116c4565b92509250509250929050565b600081519050919050565b600082825260208201905092915050565b6000819050602082019050919050565b600073ffffffffffffffffffffffffffffffffffffffff82169050919050565b60006117be82611793565b9050919050565b6117ce816117b3565b82525050565b60006117e083836117c5565b60208301905092915050565b6000602082019050919050565b600061180482611767565b61180e8185611772565b935061181983611783565b8060005b8381101561184a57815161183188826117d4565b975061183c836117ec565b92505060018101905061181d565b5085935050505092915050565b6000602082019050818103600083015261187181846117f9565b905092915050565b600081519050919050565b600082825260208201905092915050565b6000819050602082019050919050565b6000819050919050565b6118b8816118a5565b82525050565b600081519050919050565b600082825260208201905092915050565b60005b838110156118f85780820151818401526020810190506118dd565b83811115611907576000848401525b50505050565b6000601f19601f8301169050919050565b6000611929826118be565b61193381856118c9565b93506119438185602086016118da565b61194c8161190d565b840191505092915050565b600060808301600083015161196f60008601826118af565b50602083015161198260208601826117c5565b506040830151848203604086015261199a828261191e565b91505060608301516119af60608601826118af565b508091505092915050565b60006119c68383611957565b905092915050565b6000602082019050919050565b60006119e682611879565b6119f08185611884565b935083602082028501611a0285611895565b8060005b85811015611a3e5784840389528151611a1f85826119ba565b9450611a2a836119ce565b925060208a01995050600181019050611a06565b50829750879550505050505092915050565b60006020820190508181036000830152611a6a81846119db565b905092915050565b611a7b816117b3565b8114611a8657600080fd5b50565b600081359050611a9881611a72565b92915050565b600060208284031215611ab457611ab36116ab565b5b6000611ac284828501611a89565b91505092915050565b600081519050919050565b600082825260208201905092915050565b6000819050602082019050919050565b6000608083016000830151611b0f60008601826118af565b5060208301518482036020860152611b27828261191e565b9150506040830151611b3c60408601826117c5565b506060830151611b4f60608601826117c5565b508091505092915050565b6000611b668383611af7565b905092915050565b6000602082019050919050565b6000611b8682611acb565b611b908185611ad6565b935083602082028501611ba285611ae7565b8060005b85811015611bde5784840389528151611bbf8582611b5a565b9450611bca83611b6e565b925060208a01995050600181019050611ba6565b50829750879550505050505092915050565b60006020820190508181036000830152611c0a8184611b7b565b905092915050565b611c1b816118a5565b82525050565b6000602082019050611c366000830184611c12565b92915050565b611c45816117b3565b82525050565b600082825260208201905092915050565b6000611c67826118be565b611c718185611c4b565b9350611c818185602086016118da565b611c8a8161190d565b840191505092915050565b6000604082019050611caa6000830185611c3c565b8181036020830152611cbc8184611c5c565b90509392505050565b600080600060408486031215611cde57611cdd6116ab565b5b6000611cec86828701611a89565b935050602084013567ffffffffffffffff811115611d0d57611d0c6116b0565b5b611d19868287016116c4565b92509250509250925092565b611d2e816118a5565b8114611d3957600080fd5b50565b600081359050611d4b81611d25565b92915050565b600060208284031215611d6757611d666116ab565b5b6000611d7584828501611d3c565b91505092915050565b6000608082019050611d936000830187611c12565b611da06020830186611c3c565b8181036040830152611db28185611c5c565b9050611dc16060830184611c12565b95945050505050565b7f546869732077616c6c657420646f6573206e6f742062656c6f6e6720746f206160008201527f6e79206163636f756e742e000000000000000000000000000000000000000000602082015250565b6000611e26602b83611c4b565b9150611e3182611dca565b604082019050919050565b60006020820190508181036000830152611e5581611e19565b9050919050565b7f4e487b7100000000000000000000000000000000000000000000000000000000600052601160045260246000fd5b6000611e96826118a5565b91507fffffffffffffffffffffffffffffffffffffffffffffffffffffffffffffffff821415611ec957611ec8611e5c565b5b600182019050919050565b7f4e487b7100000000000000000000000000000000000000000000000000000000600052604160045260246000fd5b7f4e487b7100000000000000000000000000000000000000000000000000000000600052602260045260246000fd5b60006002820490506001821680611f4a57607f821691505b60208210811415611f5e57611f5d611f03565b5b50919050565b7f4e487b7100000000000000000000000000000000000000000000000000000000600052603260045260246000fd5b7f4e616d652063616e6e6f7420626520616e20656d70747920737472696e670000600082015250565b6000611fc9601e83611c4b565b9150611fd482611f93565b602082019050919050565b60006020820190508181036000830152611ff881611fbc565b9050919050565b600060408201905081810360008301526120198185611c5c565b90506120286020830184611c12565b939250505056fea26469706673582212203c9c6f689ccd23ca7a1518bc227b84215b0009398068e2a04d188207c590bb2064736f6c63430008090033",
  "linkReferences": {},
  "deployedLinkReferences": {}
}